{
  "_format": "hh-sol-artifact-1",
  "contractName": "ShareRingXBondbarTest",
  "sourceName": "contracts/ERC721.sol",
  "abi": [
    {
      "inputs": [],
      "stateMutability": "nonpayable",
      "type": "constructor"
    },
    {
      "anonymous": false,
      "inputs": [
        {
          "indexed": true,
          "internalType": "address",
          "name": "owner",
          "type": "address"
        },
        {
          "indexed": true,
          "internalType": "address",
          "name": "approved",
          "type": "address"
        },
        {
          "indexed": true,
          "internalType": "uint256",
          "name": "tokenId",
          "type": "uint256"
        }
      ],
      "name": "Approval",
      "type": "event"
    },
    {
      "anonymous": false,
      "inputs": [
        {
          "indexed": true,
          "internalType": "address",
          "name": "owner",
          "type": "address"
        },
        {
          "indexed": true,
          "internalType": "address",
          "name": "operator",
          "type": "address"
        },
        {
          "indexed": false,
          "internalType": "bool",
          "name": "approved",
          "type": "bool"
        }
      ],
      "name": "ApprovalForAll",
      "type": "event"
    },
    {
      "anonymous": false,
      "inputs": [
        {
          "indexed": true,
          "internalType": "address",
          "name": "previousOwner",
          "type": "address"
        },
        {
          "indexed": true,
          "internalType": "address",
          "name": "newOwner",
          "type": "address"
        }
      ],
      "name": "OwnershipTransferred",
      "type": "event"
    },
    {
      "anonymous": false,
      "inputs": [
        {
          "indexed": false,
          "internalType": "address",
          "name": "account",
          "type": "address"
        }
      ],
      "name": "Paused",
      "type": "event"
    },
    {
      "anonymous": false,
      "inputs": [
        {
          "indexed": true,
          "internalType": "address",
          "name": "from",
          "type": "address"
        },
        {
          "indexed": true,
          "internalType": "address",
          "name": "to",
          "type": "address"
        },
        {
          "indexed": true,
          "internalType": "uint256",
          "name": "tokenId",
          "type": "uint256"
        }
      ],
      "name": "Transfer",
      "type": "event"
    },
    {
      "anonymous": false,
      "inputs": [
        {
          "indexed": false,
          "internalType": "address",
          "name": "account",
          "type": "address"
        }
      ],
      "name": "Unpaused",
      "type": "event"
    },
    {
      "inputs": [
        {
          "internalType": "address",
          "name": "to",
          "type": "address"
        },
        {
          "internalType": "uint256",
          "name": "tokenId",
          "type": "uint256"
        }
      ],
      "name": "approve",
      "outputs": [],
      "stateMutability": "nonpayable",
      "type": "function"
    },
    {
      "inputs": [
        {
          "internalType": "address",
          "name": "owner",
          "type": "address"
        }
      ],
      "name": "balanceOf",
      "outputs": [
        {
          "internalType": "uint256",
          "name": "",
          "type": "uint256"
        }
      ],
      "stateMutability": "view",
      "type": "function"
    },
    {
      "inputs": [
        {
          "internalType": "uint256",
          "name": "tokenId",
          "type": "uint256"
        }
      ],
      "name": "burn",
      "outputs": [],
      "stateMutability": "nonpayable",
      "type": "function"
    },
    {
      "inputs": [
        {
          "internalType": "uint256",
          "name": "tokenId",
          "type": "uint256"
        }
      ],
      "name": "getApproved",
      "outputs": [
        {
          "internalType": "address",
          "name": "",
          "type": "address"
        }
      ],
      "stateMutability": "view",
      "type": "function"
    },
    {
      "inputs": [
        {
          "internalType": "address",
          "name": "owner",
          "type": "address"
        },
        {
          "internalType": "address",
          "name": "operator",
          "type": "address"
        }
      ],
      "name": "isApprovedForAll",
      "outputs": [
        {
          "internalType": "bool",
          "name": "",
          "type": "bool"
        }
      ],
      "stateMutability": "view",
      "type": "function"
    },
    {
      "inputs": [],
      "name": "name",
      "outputs": [
        {
          "internalType": "string",
          "name": "",
          "type": "string"
        }
      ],
      "stateMutability": "view",
      "type": "function"
    },
    {
      "inputs": [],
      "name": "owner",
      "outputs": [
        {
          "internalType": "address",
          "name": "",
          "type": "address"
        }
      ],
      "stateMutability": "view",
      "type": "function"
    },
    {
      "inputs": [
        {
          "internalType": "uint256",
          "name": "tokenId",
          "type": "uint256"
        }
      ],
      "name": "ownerOf",
      "outputs": [
        {
          "internalType": "address",
          "name": "",
          "type": "address"
        }
      ],
      "stateMutability": "view",
      "type": "function"
    },
    {
      "inputs": [],
      "name": "pause",
      "outputs": [],
      "stateMutability": "nonpayable",
      "type": "function"
    },
    {
      "inputs": [],
      "name": "paused",
      "outputs": [
        {
          "internalType": "bool",
          "name": "",
          "type": "bool"
        }
      ],
      "stateMutability": "view",
      "type": "function"
    },
    {
      "inputs": [],
      "name": "renounceOwnership",
      "outputs": [],
      "stateMutability": "nonpayable",
      "type": "function"
    },
    {
      "inputs": [
        {
          "internalType": "address",
          "name": "to",
          "type": "address"
        },
        {
          "internalType": "string",
          "name": "uri",
          "type": "string"
        }
      ],
      "name": "safeMint",
      "outputs": [],
      "stateMutability": "nonpayable",
      "type": "function"
    },
    {
      "inputs": [
        {
          "internalType": "address",
          "name": "from",
          "type": "address"
        },
        {
          "internalType": "address",
          "name": "to",
          "type": "address"
        },
        {
          "internalType": "uint256",
          "name": "tokenId",
          "type": "uint256"
        }
      ],
      "name": "safeTransferFrom",
      "outputs": [],
      "stateMutability": "nonpayable",
      "type": "function"
    },
    {
      "inputs": [
        {
          "internalType": "address",
          "name": "from",
          "type": "address"
        },
        {
          "internalType": "address",
          "name": "to",
          "type": "address"
        },
        {
          "internalType": "uint256",
          "name": "tokenId",
          "type": "uint256"
        },
        {
          "internalType": "bytes",
          "name": "_data",
          "type": "bytes"
        }
      ],
      "name": "safeTransferFrom",
      "outputs": [],
      "stateMutability": "nonpayable",
      "type": "function"
    },
    {
      "inputs": [
        {
          "internalType": "address",
          "name": "operator",
          "type": "address"
        },
        {
          "internalType": "bool",
          "name": "approved",
          "type": "bool"
        }
      ],
      "name": "setApprovalForAll",
      "outputs": [],
      "stateMutability": "nonpayable",
      "type": "function"
    },
    {
      "inputs": [
        {
          "internalType": "bytes4",
          "name": "interfaceId",
          "type": "bytes4"
        }
      ],
      "name": "supportsInterface",
      "outputs": [
        {
          "internalType": "bool",
          "name": "",
          "type": "bool"
        }
      ],
      "stateMutability": "view",
      "type": "function"
    },
    {
      "inputs": [],
      "name": "symbol",
      "outputs": [
        {
          "internalType": "string",
          "name": "",
          "type": "string"
        }
      ],
      "stateMutability": "view",
      "type": "function"
    },
    {
      "inputs": [
        {
          "internalType": "uint256",
          "name": "index",
          "type": "uint256"
        }
      ],
      "name": "tokenByIndex",
      "outputs": [
        {
          "internalType": "uint256",
          "name": "",
          "type": "uint256"
        }
      ],
      "stateMutability": "view",
      "type": "function"
    },
    {
      "inputs": [
        {
          "internalType": "address",
          "name": "owner",
          "type": "address"
        },
        {
          "internalType": "uint256",
          "name": "index",
          "type": "uint256"
        }
      ],
      "name": "tokenOfOwnerByIndex",
      "outputs": [
        {
          "internalType": "uint256",
          "name": "",
          "type": "uint256"
        }
      ],
      "stateMutability": "view",
      "type": "function"
    },
    {
      "inputs": [
        {
          "internalType": "uint256",
          "name": "tokenId",
          "type": "uint256"
        }
      ],
      "name": "tokenURI",
      "outputs": [
        {
          "internalType": "string",
          "name": "",
          "type": "string"
        }
      ],
      "stateMutability": "view",
      "type": "function"
    },
    {
      "inputs": [],
      "name": "totalSupply",
      "outputs": [
        {
          "internalType": "uint256",
          "name": "",
          "type": "uint256"
        }
      ],
      "stateMutability": "view",
      "type": "function"
    },
    {
      "inputs": [
        {
          "internalType": "address",
          "name": "from",
          "type": "address"
        },
        {
          "internalType": "address",
          "name": "to",
          "type": "address"
        },
        {
          "internalType": "uint256",
          "name": "tokenId",
          "type": "uint256"
        }
      ],
      "name": "transferFrom",
      "outputs": [],
      "stateMutability": "nonpayable",
      "type": "function"
    },
    {
      "inputs": [
        {
          "internalType": "address",
          "name": "newOwner",
          "type": "address"
        }
      ],
      "name": "transferOwnership",
      "outputs": [],
      "stateMutability": "nonpayable",
      "type": "function"
    },
    {
      "inputs": [],
      "name": "unpause",
      "outputs": [],
      "stateMutability": "nonpayable",
      "type": "function"
    }
  ],
  "bytecode": "0x60806040523480156200001157600080fd5b50604080518082018252601881527f536861726552696e67207820426f6e646261722054657374000000000000000060208083019182528351808501909452600784526614d2149090949560ca1b908401528151919291620000769160009162000104565b5080516200008c90600190602084019062000104565b5050600b805460ff1916905550620000a433620000aa565b620001e7565b600b80546001600160a01b03838116610100818102610100600160a81b031985161790945560405193909204169182907f8be0079c531659141344cd1fd0a4f28419497f9722a3daafe3b4186f6b6457e090600090a35050565b8280546200011290620001aa565b90600052602060002090601f01602090048101928262000136576000855562000181565b82601f106200015157805160ff191683800117855562000181565b8280016001018555821562000181579182015b828111156200018157825182559160200191906001019062000164565b506200018f92915062000193565b5090565b5b808211156200018f576000815560010162000194565b600181811c90821680620001bf57607f821691505b60208210811415620001e157634e487b7160e01b600052602260045260246000fd5b50919050565b61212980620001f76000396000f3fe608060405234801561001057600080fd5b50600436106101585760003560e01c80636352211e116100c3578063a22cb4651161007c578063a22cb465146102b2578063b88d4fde146102c5578063c87b56dd146102d8578063d204c45e146102eb578063e985e9c5146102fe578063f2fde38b1461033a57600080fd5b80636352211e1461025e57806370a0823114610271578063715018a6146102845780638456cb591461028c5780638da5cb5b1461029457806395d89b41146102aa57600080fd5b80632f745c59116101155780632f745c59146101ff5780633f4ba83a1461021257806342842e0e1461021a57806342966c681461022d5780634f6ccce7146102405780635c975abb1461025357600080fd5b806301ffc9a71461015d57806306fdde0314610185578063081812fc1461019a578063095ea7b3146101c557806318160ddd146101da57806323b872dd146101ec575b600080fd5b61017061016b366004611def565b61034d565b60405190151581526020015b60405180910390f35b61018d61035e565b60405161017c9190611ed7565b6101ad6101a8366004611e27565b6103f0565b6040516001600160a01b03909116815260200161017c565b6101d86101d3366004611dc6565b61047d565b005b6008545b60405190815260200161017c565b6101d86101fa366004611c79565b610593565b6101de61020d366004611dc6565b6105c5565b6101d861065b565b6101d8610228366004611c79565b610695565b6101d861023b366004611e27565b6106b0565b6101de61024e366004611e27565b61072a565b600b5460ff16610170565b6101ad61026c366004611e27565b6107cb565b6101de61027f366004611c2d565b610842565b6101d86108c9565b6101d8610903565b600b5461010090046001600160a01b03166101ad565b61018d61093b565b6101d86102c0366004611d2d565b61094a565b6101d86102d3366004611cb4565b610959565b61018d6102e6366004611e27565b610991565b6101d86102f9366004611d67565b61099c565b61017061030c366004611c47565b6001600160a01b03918216600090815260056020908152604080832093909416825291909152205460ff1690565b6101d8610348366004611c2d565b6109fb565b600061035882610a99565b92915050565b60606000805461036d90612031565b80601f016020809104026020016040519081016040528092919081815260200182805461039990612031565b80156103e65780601f106103bb576101008083540402835291602001916103e6565b820191906000526020600020905b8154815290600101906020018083116103c957829003601f168201915b5050505050905090565b60006103fb82610abe565b6104615760405162461bcd60e51b815260206004820152602c60248201527f4552433732313a20617070726f76656420717565727920666f72206e6f6e657860448201526b34b9ba32b73a103a37b5b2b760a11b60648201526084015b60405180910390fd5b506000908152600460205260409020546001600160a01b031690565b6000610488826107cb565b9050806001600160a01b0316836001600160a01b031614156104f65760405162461bcd60e51b815260206004820152602160248201527f4552433732313a20617070726f76616c20746f2063757272656e74206f776e656044820152603960f91b6064820152608401610458565b336001600160a01b03821614806105125750610512813361030c565b6105845760405162461bcd60e51b815260206004820152603860248201527f4552433732313a20617070726f76652063616c6c6572206973206e6f74206f7760448201527f6e6572206e6f7220617070726f76656420666f7220616c6c00000000000000006064820152608401610458565b61058e8383610adb565b505050565b61059e335b82610b49565b6105ba5760405162461bcd60e51b815260040161045890611f71565b61058e838383610c33565b60006105d083610842565b82106106325760405162461bcd60e51b815260206004820152602b60248201527f455243373231456e756d657261626c653a206f776e657220696e646578206f7560448201526a74206f6620626f756e647360a81b6064820152608401610458565b506001600160a01b03919091166000908152600660209081526040808320938352929052205490565b600b546001600160a01b0361010090910416331461068b5760405162461bcd60e51b815260040161045890611f3c565b610693610dda565b565b61058e83838360405180602001604052806000815250610959565b6106b933610598565b61071e5760405162461bcd60e51b815260206004820152603060248201527f4552433732314275726e61626c653a2063616c6c6572206973206e6f74206f7760448201526f1b995c881b9bdc88185c1c1c9bdd995960821b6064820152608401610458565b61072781610e6d565b50565b600061073560085490565b82106107985760405162461bcd60e51b815260206004820152602c60248201527f455243373231456e756d657261626c653a20676c6f62616c20696e646578206f60448201526b7574206f6620626f756e647360a01b6064820152608401610458565b600882815481106107b957634e487b7160e01b600052603260045260246000fd5b90600052602060002001549050919050565b6000818152600260205260408120546001600160a01b0316806103585760405162461bcd60e51b815260206004820152602960248201527f4552433732313a206f776e657220717565727920666f72206e6f6e657869737460448201526832b73a103a37b5b2b760b91b6064820152608401610458565b60006001600160a01b0382166108ad5760405162461bcd60e51b815260206004820152602a60248201527f4552433732313a2062616c616e636520717565727920666f7220746865207a65604482015269726f206164647265737360b01b6064820152608401610458565b506001600160a01b031660009081526003602052604090205490565b600b546001600160a01b036101009091041633146108f95760405162461bcd60e51b815260040161045890611f3c565b6106936000610e76565b600b546001600160a01b036101009091041633146109335760405162461bcd60e51b815260040161045890611f3c565b610693610ed0565b60606001805461036d90612031565b610955338383610f4b565b5050565b6109633383610b49565b61097f5760405162461bcd60e51b815260040161045890611f71565b61098b8484848461101a565b50505050565b60606103588261104d565b600b546001600160a01b036101009091041633146109cc5760405162461bcd60e51b815260040161045890611f3c565b60006109d7600c5490565b90506109e7600c80546001019055565b6109f183826111bc565b61058e81836111d6565b600b546001600160a01b03610100909104163314610a2b5760405162461bcd60e51b815260040161045890611f3c565b6001600160a01b038116610a905760405162461bcd60e51b815260206004820152602660248201527f4f776e61626c653a206e6577206f776e657220697320746865207a65726f206160448201526564647265737360d01b6064820152608401610458565b61072781610e76565b60006001600160e01b0319821663780e9d6360e01b1480610358575061035882611261565b6000908152600260205260409020546001600160a01b0316151590565b600081815260046020526040902080546001600160a01b0319166001600160a01b0384169081179091558190610b10826107cb565b6001600160a01b03167f8c5be1e5ebec7d5bd14f71427d1e84f3dd0314c0f7b2291e5b200ac8c7c3b92560405160405180910390a45050565b6000610b5482610abe565b610bb55760405162461bcd60e51b815260206004820152602c60248201527f4552433732313a206f70657261746f7220717565727920666f72206e6f6e657860448201526b34b9ba32b73a103a37b5b2b760a11b6064820152608401610458565b6000610bc0836107cb565b9050806001600160a01b0316846001600160a01b03161480610c0757506001600160a01b0380821660009081526005602090815260408083209388168352929052205460ff165b80610c2b5750836001600160a01b0316610c20846103f0565b6001600160a01b0316145b949350505050565b826001600160a01b0316610c46826107cb565b6001600160a01b031614610caa5760405162461bcd60e51b815260206004820152602560248201527f4552433732313a207472616e736665722066726f6d20696e636f72726563742060448201526437bbb732b960d91b6064820152608401610458565b6001600160a01b038216610d0c5760405162461bcd60e51b8152602060048201526024808201527f4552433732313a207472616e7366657220746f20746865207a65726f206164646044820152637265737360e01b6064820152608401610458565b610d178383836112b1565b610d22600082610adb565b6001600160a01b0383166000908152600360205260408120805460019290610d4b908490611fee565b90915550506001600160a01b0382166000908152600360205260408120805460019290610d79908490611fc2565b909155505060008181526002602052604080822080546001600160a01b0319166001600160a01b0386811691821790925591518493918716917fddf252ad1be2c89b69c2b068fc378daa952ba7f163c4a11628f55a4df523b3ef91a4505050565b600b5460ff16610e235760405162461bcd60e51b815260206004820152601460248201527314185d5cd8589b194e881b9bdd081c185d5cd95960621b6044820152606401610458565b600b805460ff191690557f5db9ee0a495bf2e6ff9c91a7834c1ba4fdd244a5e8aa4e537bd38aeae4b073aa335b6040516001600160a01b03909116815260200160405180910390a1565b61072781611302565b600b80546001600160a01b03838116610100818102610100600160a81b031985161790945560405193909204169182907f8be0079c531659141344cd1fd0a4f28419497f9722a3daafe3b4186f6b6457e090600090a35050565b600b5460ff1615610f165760405162461bcd60e51b815260206004820152601060248201526f14185d5cd8589b194e881c185d5cd95960821b6044820152606401610458565b600b805460ff191660011790557f62e78cea01bee320cd4e420270b5ea74000d11b0c9f74754ebdbfc544b05a258610e503390565b816001600160a01b0316836001600160a01b03161415610fad5760405162461bcd60e51b815260206004820152601960248201527f4552433732313a20617070726f766520746f2063616c6c6572000000000000006044820152606401610458565b6001600160a01b03838116600081815260056020908152604080832094871680845294825291829020805460ff191686151590811790915591519182527f17307eab39ab6107e8899845ad3d59bd9653f200f220920489ca2b5937696c31910160405180910390a3505050565b611025848484610c33565b61103184848484611342565b61098b5760405162461bcd60e51b815260040161045890611eea565b606061105882610abe565b6110be5760405162461bcd60e51b815260206004820152603160248201527f45524337323155524953746f726167653a2055524920717565727920666f72206044820152703737b732bc34b9ba32b73a103a37b5b2b760791b6064820152608401610458565b6000828152600a6020526040812080546110d790612031565b80601f016020809104026020016040519081016040528092919081815260200182805461110390612031565b80156111505780601f1061112557610100808354040283529160200191611150565b820191906000526020600020905b81548152906001019060200180831161113357829003601f168201915b50505050509050600061116e60408051602081019091526000815290565b9050805160001415611181575092915050565b8151156111b357808260405160200161119b929190611e6b565b60405160208183030381529060405292505050919050565b610c2b8461144f565b610955828260405180602001604052806000815250611527565b6111df82610abe565b6112425760405162461bcd60e51b815260206004820152602e60248201527f45524337323155524953746f726167653a2055524920736574206f66206e6f6e60448201526d32bc34b9ba32b73a103a37b5b2b760911b6064820152608401610458565b6000828152600a60209081526040909120825161058e92840190611acc565b60006001600160e01b031982166380ac58cd60e01b148061129257506001600160e01b03198216635b5e139f60e01b145b8061035857506301ffc9a760e01b6001600160e01b0319831614610358565b600b5460ff16156112f75760405162461bcd60e51b815260206004820152601060248201526f14185d5cd8589b194e881c185d5cd95960821b6044820152606401610458565b61058e83838361155a565b61130b81611612565b6000818152600a60205260409020805461132490612031565b159050610727576000818152600a6020526040812061072791611b50565b60006001600160a01b0384163b1561144457604051630a85bd0160e11b81526001600160a01b0385169063150b7a0290611386903390899088908890600401611e9a565b602060405180830381600087803b1580156113a057600080fd5b505af19250505080156113d0575060408051601f3d908101601f191682019092526113cd91810190611e0b565b60015b61142a573d8080156113fe576040519150601f19603f3d011682016040523d82523d6000602084013e611403565b606091505b5080516114225760405162461bcd60e51b815260040161045890611eea565b805181602001fd5b6001600160e01b031916630a85bd0160e11b149050610c2b565b506001949350505050565b606061145a82610abe565b6114be5760405162461bcd60e51b815260206004820152602f60248201527f4552433732314d657461646174613a2055524920717565727920666f72206e6f60448201526e3732bc34b9ba32b73a103a37b5b2b760891b6064820152608401610458565b60006114d560408051602081019091526000815290565b905060008151116114f55760405180602001604052806000815250611520565b806114ff846116b9565b604051602001611510929190611e6b565b6040516020818303038152906040525b9392505050565b61153183836117d3565b61153e6000848484611342565b61058e5760405162461bcd60e51b815260040161045890611eea565b6001600160a01b0383166115b5576115b081600880546000838152600960205260408120829055600182018355919091527ff3f7a9fe364faab93b216da50a3214154f22a0a2b415b23a84c8169e8b636ee30155565b6115d8565b816001600160a01b0316836001600160a01b0316146115d8576115d88382611912565b6001600160a01b0382166115ef5761058e816119af565b826001600160a01b0316826001600160a01b03161461058e5761058e8282611a88565b600061161d826107cb565b905061162b816000846112b1565b611636600083610adb565b6001600160a01b038116600090815260036020526040812080546001929061165f908490611fee565b909155505060008281526002602052604080822080546001600160a01b0319169055518391906001600160a01b038416907fddf252ad1be2c89b69c2b068fc378daa952ba7f163c4a11628f55a4df523b3ef908390a45050565b6060816116dd5750506040805180820190915260018152600360fc1b602082015290565b8160005b811561170757806116f18161206c565b91506117009050600a83611fda565b91506116e1565b60008167ffffffffffffffff81111561173057634e487b7160e01b600052604160045260246000fd5b6040519080825280601f01601f19166020018201604052801561175a576020820181803683370190505b5090505b8415610c2b5761176f600183611fee565b915061177c600a86612087565b611787906030611fc2565b60f81b8183815181106117aa57634e487b7160e01b600052603260045260246000fd5b60200101906001600160f81b031916908160001a9053506117cc600a86611fda565b945061175e565b6001600160a01b0382166118295760405162461bcd60e51b815260206004820181905260248201527f4552433732313a206d696e7420746f20746865207a65726f20616464726573736044820152606401610458565b61183281610abe565b1561187f5760405162461bcd60e51b815260206004820152601c60248201527f4552433732313a20746f6b656e20616c7265616479206d696e746564000000006044820152606401610458565b61188b600083836112b1565b6001600160a01b03821660009081526003602052604081208054600192906118b4908490611fc2565b909155505060008181526002602052604080822080546001600160a01b0319166001600160a01b03861690811790915590518392907fddf252ad1be2c89b69c2b068fc378daa952ba7f163c4a11628f55a4df523b3ef908290a45050565b6000600161191f84610842565b6119299190611fee565b60008381526007602052604090205490915080821461197c576001600160a01b03841660009081526006602090815260408083208584528252808320548484528184208190558352600790915290208190555b5060009182526007602090815260408084208490556001600160a01b039094168352600681528383209183525290812055565b6008546000906119c190600190611fee565b600083815260096020526040812054600880549394509092849081106119f757634e487b7160e01b600052603260045260246000fd5b906000526020600020015490508060088381548110611a2657634e487b7160e01b600052603260045260246000fd5b6000918252602080832090910192909255828152600990915260408082208490558582528120556008805480611a6c57634e487b7160e01b600052603160045260246000fd5b6001900381819060005260206000200160009055905550505050565b6000611a9383610842565b6001600160a01b039093166000908152600660209081526040808320868452825280832085905593825260079052919091209190915550565b828054611ad890612031565b90600052602060002090601f016020900481019282611afa5760008555611b40565b82601f10611b1357805160ff1916838001178555611b40565b82800160010185558215611b40579182015b82811115611b40578251825591602001919060010190611b25565b50611b4c929150611b86565b5090565b508054611b5c90612031565b6000825580601f10611b6c575050565b601f01602090049060005260206000209081019061072791905b5b80821115611b4c5760008155600101611b87565b600067ffffffffffffffff80841115611bb657611bb66120c7565b604051601f8501601f19908116603f01168101908282118183101715611bde57611bde6120c7565b81604052809350858152868686011115611bf757600080fd5b858560208301376000602087830101525050509392505050565b80356001600160a01b0381168114611c2857600080fd5b919050565b600060208284031215611c3e578081fd5b61152082611c11565b60008060408385031215611c59578081fd5b611c6283611c11565b9150611c7060208401611c11565b90509250929050565b600080600060608486031215611c8d578081fd5b611c9684611c11565b9250611ca460208501611c11565b9150604084013590509250925092565b60008060008060808587031215611cc9578081fd5b611cd285611c11565b9350611ce060208601611c11565b925060408501359150606085013567ffffffffffffffff811115611d02578182fd5b8501601f81018713611d12578182fd5b611d2187823560208401611b9b565b91505092959194509250565b60008060408385031215611d3f578182fd5b611d4883611c11565b915060208301358015158114611d5c578182fd5b809150509250929050565b60008060408385031215611d79578182fd5b611d8283611c11565b9150602083013567ffffffffffffffff811115611d9d578182fd5b8301601f81018513611dad578182fd5b611dbc85823560208401611b9b565b9150509250929050565b60008060408385031215611dd8578182fd5b611de183611c11565b946020939093013593505050565b600060208284031215611e00578081fd5b8135611520816120dd565b600060208284031215611e1c578081fd5b8151611520816120dd565b600060208284031215611e38578081fd5b5035919050565b60008151808452611e57816020860160208601612005565b601f01601f19169290920160200192915050565b60008351611e7d818460208801612005565b835190830190611e91818360208801612005565b01949350505050565b6001600160a01b0385811682528416602082015260408101839052608060608201819052600090611ecd90830184611e3f565b9695505050505050565b6020815260006115206020830184611e3f565b60208082526032908201527f4552433732313a207472616e7366657220746f206e6f6e20455243373231526560408201527131b2b4bb32b91034b6b83632b6b2b73a32b960711b606082015260800190565b6020808252818101527f4f776e61626c653a2063616c6c6572206973206e6f7420746865206f776e6572604082015260600190565b60208082526031908201527f4552433732313a207472616e736665722063616c6c6572206973206e6f74206f6040820152701ddb995c881b9bdc88185c1c1c9bdd9959607a1b606082015260800190565b60008219821115611fd557611fd561209b565b500190565b600082611fe957611fe96120b1565b500490565b6000828210156120005761200061209b565b500390565b60005b83811015612020578181015183820152602001612008565b8381111561098b5750506000910152565b600181811c9082168061204557607f821691505b6020821081141561206657634e487b7160e01b600052602260045260246000fd5b50919050565b60006000198214156120805761208061209b565b5060010190565b600082612096576120966120b1565b500690565b634e487b7160e01b600052601160045260246000fd5b634e487b7160e01b600052601260045260246000fd5b634e487b7160e01b600052604160045260246000fd5b6001600160e01b03198116811461072757600080fdfea2646970667358221220e1e07fec4ca1801af59dc2b4a46a8849ada5af17b15e92b0f7c27fab5952731564736f6c63430008040033",
  "linkReferences": {},
  "deployedLinkReferences": {}
}